S01800006275696C642F6D6963617A2F6D61696E2E73726563E5
S11300000C9449000C94D0040C94DA040C94E40489
S11300100C94EE040C94F8040C9402050C94AF06B2
S11300200C940C050C9468000C9468000C94720AEF
S11300300C94950C0C949A040C94B0040C9416052E
S11300400C9489040C94C90E0C9468000C946800F8
S11300500C9468000C9468000C9468000C9468007C
S11300600C94A5040C9468000C9468000C9468002B
S11300700C9468000C9468000C9468000C9468005C
S11300800C9468000C9468000C94680000081C1818
S1130090141011241FBECFEFD0E1DEBFCDBF11E09D
S11300A0A0E0B1E0ECE0F0E300E00BBF02C0079099
S11300B00D92A833B107D9F712E0A8E3B1E001C06B
S11300C01D92AA37B107E1F70E94F1130C940518A9
S11300D00C9400008FB7F894992708958FBF089562
S11300E0FC0182819927582F442781819927482B25
S11300F0592BCA01892F992786958695837090700C
S11301008230910559F08330910559F0892B19F407
S113011020E030E008C02CE93FEF05C022E030E0E9
S113012002C028E030E0CA0184E0989F812D99271D
S113013011248230910559F08330910559F0892BAF
S113014019F480E090E008C08CE99FEF05C082E0DC
S113015090E002C088E090E0280F391F2A5F3F4FEB
S1130160CF01820F931F0895282F9FB7F894662319
S113017049F0E82FFF27E050FE4F8081882311F0DB
S113018021E006C0E22FFF27E050FE4F608320E00D
S1130190892F99278FBF822F99270895E82F8FB72A
S11301A0F894282F332790E0FF27E050FE4F8081FA
S11301B0861709F491E02FBF892F99270895882382
S11301C011F06E9A08956E980895882311F06F9A2D
S11301D008956F98089580E00E94DF00BA9ABB9852
S11301E0B99AB89A6C9A80E00E94E5006B986A9874
S11301F081E00E94DF00709A8DB18C7F8DB90895E3
S11302000F931F93CF93DF93182F8FB7F894C82FB2
S1130210DD270C2F61E080E00E94B400882321F0E8
S1130220CFBF85E090E024C0809130018823A1F401
S113023080913D01823081F409C082E080933D01C8
S1130240109230010E94EB00B89AC09810932D01CF
S113025080E00FBF99270CC080913D01882369F38A
S11302608FB7F8949927109200028FBF81E0F1CFE5
S1130270DF91CF911F910F910895282F9FB7F89484
S1130280E82FFF27EF59FE4F80818F3F81F4E091E3
S11302907802E21771F40BC020936A0204C0FF27AE
S11302A0EF59FE4F20832093780220E007C025E019
S11302B005C080916A028F3F91F7EECF892F99276D
S11302C08FBF822F992708951F93182F81E00E94D2
S11302D0DF001FB9779BFECF8FB199271F91089537
S11302E08F929F92AF92BF92CF92DF92EF92FF9242
S11302F00F931F93CF93DF938FB7F8949927C090F0
S11303007302D09074028090F9019090FA01C09128
S1130310CF01D091D0012091460130914701EAE00C
S1130320AE2EB12CAC0EBD1E2A153B0508F45901A6
S11303308FBF7401EC0EFD1E86010C0F1D1F14C02F
S1130340C114D10419F0F801808101C080E00E9439
S113035064018114910411F0F701808321960894BB
S1130360E11CF11C0F5F1F4FC5010197C817D90786
S113037038F381E00E94E5009FB7F894C114D104DA
S113038031F0CC0EDD1EF60180818FB901C01FB89B
S1130390D093D001C093CF01892F99278FBF80E0DC
S11303A090E0DF91CF911F910F91FF90EF90DF903C
S11303B0CF90BF90AF909F908F9008952FB7F894EF
S11303C033275093470140934601909374028093DE
S11303D073027093FA016093F9011092D0011092A4
S11303E0CF012FBF452B29F08FB10E9470019927AF
S11303F0089589E00E943D0180E090E008958FB760
S1130400F8949927109202028FBF08957FB7F89449
S113041062B72091490130914A0140914B015091BA
S11304204C0106B601FE0FC081B792B7280F311DEB
S1130430411D511D2F5F3F4F4F4F5F4F290F311DFE
S1130440411D511D04C0260F311D411D511D872F13
S113045099278FBFCA01B90108952F923F924F92F5
S11304605F926F927F928F929F92AF92BF92CF9240
S1130470DF92EF92FF920F931F93CF93DF93CDB749
S1130480DEB729970FB6F894DEBF0FBECDBF6FB7A6
S11304906983F8942090B4013090B5014090B6017E
S11304A05090B701662477248824BEE4AB2EA3E8D9
S11304B0BA2ECC24DD24EE24FF2400E010E0222D0B
S11304C0332D442D552D662D772D882D90E00E94D7
S11304D0E0152A833B834C835D836E837F83888707
S11304E09987822E932EA42EB52E2401350100E285
S11304F00E94DE16A22EB32EC42ED52EA301920185
S113050056954795379527952A0D3B1D4C1D5D1D26
S113051057FF05C05F772F5F3F4F4F4F5F4F2093CB
S1130520B4013093B5014093B6015093B701E9810A
S11305308E2F99278FBFCA01B90129960FB6F89457
S1130540DEBF0FBECDBFDF91CF911F910F91FF9002
S1130550EF90DF90CF90BF90AF909F908F907F905F
S11305606F905F904F903F902F900895DF92EF929D
S1130570FF920F931F938FB7F894282F3327D22E0F
S113058091B782B746B7981711F041FF02C02FBF49
S11305906AC08091CE018823E1F10E940602E090B6
S11305A0FC01F090FD010091FE011091FF012091EA
S11305B05B0130915C0140915D0150915E016E19C7
S11305C07F09800B910B621773078407950720F04E
S11305D01092CE0171E01EC02E0D3F1D401F511F11
S11305E08091490190914A01A0914B01B0914C0135
S11305F0281B390B4A0B5B0B273E3105410551057E
S113060040F4822F223010F070E005C070E082E0E8
S113061002C070E086EE682F615000B601FCFDCF89
S113062082B7681709F46F5F2091490130914A013C
S113063040914B0150914C01DA01C9010196A11D71
S1130640B11D860F911DA11DB11D82179307A4072B
S1130650B50710F4622F609561BFDFBE772319F0F0
S11306608CE00E943D011F910F91FF90EF90DF906D
S11306700895AFB7F894BB27E1E0E093CE0160930F
S1130680FC017093FD018093FE019093FF01209380
S11306905B0130935C0140935D0150935E01AFBFF9
S11306A00E94B602089580E880935F011092AE0123
S11306B010926D0210926902109276010895CF9300
S11306C0DF93FC0115A6DC019E96ED011B821A82C4
S11306D0198280E886A7DF91CF9108958FB7F894A7
S11306E06091D3017091D4012CB53DB506B602FEDC
S11306F004C06F5F7F4F2CB53DB599278FBF882706
S11307009927CB017727662744275527622B732B1C
S1130710842B952B0895EF92FF920F931F930E94C1
S11307206E037B018C012091BE013091BF01409189
S1130730C0015091C1018091B9019091BA01A09179
S1130740BB01B091BC01820F931FA41FB51FE21619
S1130750F3060407150730F082179307A407B507BB
S113076058F005C082179307A407B507E0F5E8160B
S1130770F9060A071B07B8F59C01AD012E193F09BC
S1130780400B510B213060E8360760E0460760E01B
S1130790560768F180E090E8A0E0B0E0E80EF91EAA
S11307A00A1F1B1FE092BE01F092BF010093C0011B
S11307B01093C10180E090E8AFEFBFEFE80EF91E9F
S11307C00A1F1B1F20503048404050402093B9015D
S11307D03093BA014093BB015093BC0120E030E850
S11307E040E050E014C020E030E040E050E080936E
S11307F0BE019093BF01A093C001B093C1011092B8
S1130800B9011092BA011092BB011092BC01A90166
S1130810B7012CB53DB5C9018E199F0903968417FC
S1130820950720F0B9016D5F7F4F02C0640F751FFB
S11308306115710511F461E070E0615070407BBD99
S11308406ABD80E186BF87B7806187BF1F910F9122
S1130850FF90EF9008950F931F930FB7F89411270B
S11308606093BE017093BF018093C0019093C10156
S11308702093B9013093BA014093BB015093BC015A
S11308800E948B030FBF1F910F91089597B79F7D0F
S113089097BF90E296BF882319F08EB5806402C09A
S11308A08EB58F7B8EBD87B7806287BF80E090E076
S11308B00895AF92BF92CF92DF92EF92FF920F937F
S11308C01F93CF93DF93CDB7DEB728970FB6F89475
S11308D0DEBF0FBECDBF20E070E0E0910001F091DB
S11308E0010132E14DE65CE46FE4809101019E2F49
S11308F028960FB6F894DEBF0FBECDBFDF91CF911F
S11309001F910F91FF90EF90DF90CF90BF90AF9029
S113091008951F920F920FB60F9211248F9383B7ED
S113092083BF00B600FCFDCF8F910F900FBE0F90D8
S11309301F90189578941F920F920FB60F9211245E
S11309400F900FBE0F901F90189578941F920F92DE
S11309500FB60F9211240F900FBE0F901F90189591
S113096078941F920F920FB60F9211242F933F93F6
S11309708F939F932FB7F89433278091D30190914D
S1130980D40101969093D4018093D3012FBF9F91FA
S11309908F913F912F910F900FBE0F901F9018953C
S11309A01F920F920FB60F9211240F900FBE0F904B
S11309B01F9018951F920F920FB60F9211240F904B
S11309C00FBE0F901F9018951F920F920FB60F92A3
S11309D011240F900FBE0F901F9018951F920F9225
S11309E00FB60F9211240F900FBE0F901F90189501
S11309F01F920F920FB60F9211240F900FBE0F90FB
S1130A001F9018951F920F920FB60F9211240F90FA
S1130A100FBE0F901F9018951F920F920FB60F9252
S1130A2011240F900FBE0F901F9018951F920F92D4
S1130A300FB60F9211242F933F934F935F936F93AD
S1130A407F938F939F93AF93BF93EF93FF9383B75A
S1130A5083BF00B600FCFDCF81B799270196AA2772
S1130A60BB272091490130914A0140914B0150919B
S1130A704C01280F391F4A1F5B1F209349013093F3
S1130A804A0140934B0150934C0178940E94B60262
S1130A90FF91EF91BF91AF919F918F917F916F9152
S1130AA05F914F913F912F910F900FBE0F901F9028
S1130AB018950F931F93182F0FB7F89461E080E0F7
S1130AC00E94B400882371F510932D0180913001A8
S1130AD08823A9F580913D01823089F588E00CC016
S1130AE00E94EB0080913D01882349F481E08093CA
S1130AF03D01109277018AE00E943D012AC0809155
S1130B00BD018F3F31F5E0912F01EE2311F11CC09F
S1130B1010922E0104C0FF27E354FE4F108210925E
S1130B202F0117C081E090E002C0880F991F1A9529
S1130B30E2F720913C01282B20933C010AC08091CC
S1130B403D018823E1F6CCCF80912E018F3F19F728
S1130B50DFCF802F99278FBF80E090E01F910F9106
S1130B6008951F9383E00E9400019927182F88237A
S1130B7019F083E00E945905812F99271F91089548
S1130B80CF92DF92EF92FF920F931F93CF93DF9355
S1130B908C01F62E6A01E22E8FB7F894C82FDD2758
S1130BA060E080E00E94CE00882321F0CFBF80E087
S1130BB090E01EC0CFBF0F0D111D802F80680E94D2
S1130BC06401F82E16950795802F807C0E9464019D
S1130BD00E2D0AC0EE2DFF27E01BF109EC0DFD1DC3
S1130BE080810E94640101500023A1F78F2D992771
S1130BF0DF91CF911F910F91FF90EF90DF90CF90F5
S1130C000895CF93DF93CDB7DEB72C970FB6F89442
S1130C10DEBF0FBECDBF8FB7F894282FAE014F5F54
S1130C205F4FDA01E6E0F2E088E001900D92815036
S1130C30E1F78091AF019091B0018987892F9927BD
S1130C408A878091C2019091C3018B87892F99274C
S1130C508C872FBF2CE060E080E691E00E94C00505
S1130C602C960FB6F894DEBF0FBECDBFDF91CF91A7
S1130C7008951F93CF93DF93182F8FB7F894C82F3D
S1130C80DD2760E080E00E94CE00882321F0CFBF02
S1130C9080E090E005C0CFBF812F0E9464019927B6
S1130CA0DF91CF911F910895EF92FF920F931F93BD
S1130CB0CF93DF93182F7B01042F8FB7F894C82F9D
S1130CC0DD2760E080E00E94CE00882321F0CFBFC2
S1130CD080E090E014C0CFBF1064812F99279093D7
S1130CE0C7018093C6010E946401182F402F552725
S1130CF0B70180E090E00E94DE01812F9927DF9107
S1130D00CF911F910F91FF90EF900895C09860913B
S1130D1044017091450141E08FE30E945406089517
S1130D2082E090E0909371018093700181E0809360
S1130D30AE0120E030E080912D01843011F421E0F7
S1130D4030E0232B29F484E00E940001882319F465
S1130D500E948606089584E00E94590508951F9212
S1130D600F920FB60F9211242F933F934F935F93DB
S1130D706F937F938F939F93AF93BF93EF93FF935F
S1130D808091700190917101019749F482E090E0A3
S1130D9090937101809370010E94900605C0809128
S1130DA076018F5F80937601FF91EF91BF91AF91B0
S1130DB09F918F917F916F915F914F913F912F916F
S1130DC00F900FBE0F901F9018951F9380913C01B8
S1130DD0882309F04BC010912D011F3F09F046C034
S1130DE060E00E94CE00882309F440C081E0809333
S1130DF00F02809160018823E1F110920F0285E0D7
S1130E0090E045C0923069F5C09A80912E0120E0AF
S1130E1030E08F3F11F421E030E0232BE9F410930C
S1130E2030018F3F19F42FEF30E00DC0282F332706
S1130E30F901E354FE4F808180932E018F3F11F41A
S1130E4010932F0110832093770181E080933D015B
S1130E508AE00E943D0105C01093300110923D01CB
S1130E6011C080913D01882369F00FC081E090E0BA
S1130E700EC08091300190913D01882319F2923087
S1130E8021F0EFCF80E00E94DF0080E090E01F912E
S1130E9008951F93182F81E090E090933F01809371
S1130EA03E01109260010E94E5068FB7F8949927DD
S1130EB0109338018FBF84E00E943D011F91089573
S1130EC01F93CF93DF939FB7F894C92FDD271C2F6F
S1130ED090912D01981721F0CFBF81E090E03AC0A6
S1130EE08FEF80932D0130913C013323F1F48FB7C0
S1130EF0F8949927109200028FBF0E94E506CFBF95
S1130F0011C020932D0181E090E002C0880F991F49
S1130F104A95E2F78095382330933C0188E00E949B
S1130F203D011FBF80E090E015C080E065E0E32F45
S1130F30FF270E946117292F492F5527CF01042E1F
S1130F4002C0959587950A94E2F780FDDACF822F47
S1130F508F5FEFCFDF91CF911F9108951F93CF93B0
S1130F60DF938FB7F894C82FDD271C2F8091700171
S1130F7090917101892B29F484E00E946007CFBF0E
S1130F801EC01092AE0180917601882311F0B799AA
S1130F9004C00E9908C0882319F08150809376010B
S1130FA00E9490060BC081E090E0909371018093C1
S1130FB070011092760184E00E9460071FBFDF91E8
S1130FC0CF911F9108950E945303C09AC09888E05E
S1130FD00E94390688E00E943906C09A84E00E9483
S1130FE060070E94AE070895FF920F931F93CF935B
S1130FF0DF93F82E8B018FB7F894C82FDD2760E0BC
S113100080E00E94CE00882321F0CFBF80E090E0F2
S11310100CC0CFBF8F2D0E946401812F99270E949D
S11310206401802F0E9464019927DF91CF911F9161
S11310300F91FF9008951F931FB7F8948091750145
S1131040882319F460E070E009C060E080917202C6
S1131050882309F461E081E0682777278091B10152
S1131060882319F480E090E00AC090E080910502A2
S1131070882309F491E081E09827892F9927762F16
S11310806627770F770F770FF4E0880F991FFA958B
S1131090E1F7826E9262682B792B81E10E94F4075A
S11310A0812F99278FBF1F9108958FB7F89499279F
S11310B060910E028FBF85E0689FB0011124625DCC
S11310C07E4F706488E10E94F4070895EF92FF92C6
S11310D01F93CF93DF93E090B201F090B301F70137
S11310E082A59927182F882309F41FE1C0988091BD
S11310F07401811749F0612F77276F717070606EEA
S1131100706885E10E94F40710937401F70110815F
S11311108FB7F894C82FDD2760E080E00E94CE00EE
S1131120882311F0CFBF12C0CFBF8EE390E090931D
S1131130C7018093C6018EE30E9464011150412FC0
S1131140552760E070E0C7010E94DE01DF91CF9176
S11311501F91FF90EF9008950F931F93CF93DF9308
S1131160EC010FB7F89411270E947000FC018FE383
S113117080830FBF1092700210926F0261E082E0D0
S11311800E94B400882319F085E090E072C0809139
S113119010028F5F8093100281508B838FB7F89475
S11311A0082F112762E081E00E94CE00882329F4F1
S11311B00FBF0E94FF0181E05BC08FB7F8949927AD
S11311C024E0209301028FBFD093CD01C093CC01C2
S11311D00FBFFE013196818129819927982F882795
S11311E03327822B932B80729C7C8983892F9927A8
S11311F081832981982F882733272164822B932B7D
S11312008983892F992781831CA618A619A619AA50
S113121018AA1FA680E88EA761E06093040240919B
S1131220CC015091CD018FB7F894282F33278091AA
S11312303E0190913F018830910511F0019711F022
S11312402FBF15C082E090E090933F0180933E0150
S1131250609379025093B3014093B2011092480114
S11312602FBF0E94B105882311F40E94660880E014
S11312709927DF91CF911F910F910895CF93DF9319
S1131280DA01422F2D3118F082E090E05EC0ED01CA
S11312908B876E83872F99278F832FB7F8943327F3
S11312A08091AF019091B0012FBFFD018483892FFC
S11312B0992785832FB7F894332780913101909132
S11312C032012FBF8887892F992789873196818199
S11312D029819927982F8827332720643868822BFF
S11312E0932B8983892F99278183435F4C934D5096
S11312F080913401882359F010923401642FCD0178
S11313000E94AC089927282F8823A9F417C0842F9A
S113131099279093CB018093CA01B0934301A09382
S113132042018EE00E943D0180913401882349F4FA
S113133089E090E00AC08FEF80933401822F9927CF
S113134004C01092B80180E090E0DF91CF9108953D
S113135010922C01E091D101F091D201309721F04B
S113136080916E0280FF08C081E080932C01089573
S113137081E00E943D01089520812D50332767812B
S11313807727762F662786819927682B792BAF01DB
S113139083850E943E09882359F7089580912C0182
S11313A0882369F48091D1019091D201861797071F
S11313B031F41092D2011092D1010E94A80908952B
S11313C0AF92BF92CF92DF92EF92FF920F931F934F
S11313D0CF93DF935B016C01C0E0D0E0E5EDF1E079
S11313E0608561FF6BC02081318142815381E4803B
S11313F0F58006811781D601C501821B930BA40BCE
S1131400B50B8E159F05A007B10708F457C060FF00
S113141003C06D7F608708C02E0D3F1D401F511F04
S11314202083318342835383C13021F0C33009F0D8
S11314304BC041C081E08093870110928601809166
S113144000019091010180FD03C062E071E002C0DF
S113145067E171E088E891E00E94FE174AE751E0F5
S11314608FEF809380018093810186E080938501D2
S11314708091D1019091D201892B31F55093D20101
S11314804093D10184E280937A0180912C018823D6
S1131490D9F010922C0127E16FEF7FEF86E00E94D4
S11314A03E09882389F081E080932C011092D201B7
S11314B01092D10109C00E942D0206C021963996CE
S11314C0C430D10509F08CCF8DE00E943D01DF913D
S11314D0CF911F910F91FF90EF90DF90CF90BF902D
S11314E0AF90089578941F920F920FB60F92112423
S11314F02F923F924F925F926F927F928F929F9220
S1131500AF92BF92CF92DF92EF92FF920F931F930D
S11315102F933F934F935F936F937F938F939F93F7
S1131520AF93BF93CF93DF93EF93FF93C6B5D7B534
S11315308FB7F894282E0E946E039B012C1B3D0B41
S1131540442755272B013C01421A530A640A750AA1
S113155080913E0190913F018530910521F00697DD
S113156009F0E0C0BFC086E090E090933F01809313
S11315703E0131E0332E309279011092400180E037
S11315800E944604E091B201F091B30141AABB2745
S1131590A72D962D852D80ABC301AA27BB2787A72E
S11315A0872D9927AA27BB2786A7E091B201F0913E
S11315B0B30185A5882309F484C060816550772729
S11315C04F01860E971EF4012081E1808281A38061
S11315D09927AA27BB27BA2FA92F982F8827332703
S11315E044275527522F442733272227FF24002737
S11315F011278701FF24EE242E293F29402B512B4C
S1131600BB24CC24DD242A293B294C295D29822BA7
S1131610932BA42BB52B84199509A609B7098383A9
S1131620292F3A2F4B2F552722839D0144275527D5
S113163021838B2F9927AA27BB278083C09824E076
S1131640A40180E090E00E94C005C09AF4012081CA
S1131650E1808281A3809927AA27BB27BA2FA92FCB
S1131660982F8827332744275527522F4427332779
S11316702227FF24002711278701FF24EE242E2987
S11316803F29402B512BBB24CC24DD242A293B2980
S11316904C295D29822B932BA42BB52B840D951DEE
S11316A0A61DB71D8383292F3A2F4B2F552722833D
S11316B09D014427552721838B2F9927AA27BB27D0
S11316C08083E091B201F091B301818185FF02C072
S11316D03092600183E00E94600787B78F7E87BFE6
S11316E084997AC01092790181E00E944604E091C5
S11316F0B201F091B301818185FF0FC087E090E0D2
S113170090933F0180933E010E946E0320E031E0FC
S113171040E050E00E942B0403C080E00E9449078F
S1131720849B5AC080914001882391F5809179016E
S1131730882371F511E0109379010E94460480B367
S113174020916902283098F4E0916D02E20FFF279E
S1131750E770F070EE0FFF1FEE0FFF1FEB5EFD4F03
S113176040825182628273822F5F209369021093B8
S11317704001D093C901C093C80184992DC0992711
S113178054E0969587955A95E1F7182F117001C08A
S113179010E0809179018130F9F4109279010E946E
S11317A04604109240011123B9F48091C80190912C
S11317B0C901C81BD90B2A9778F480916902882340
S11317C019F08150809369028091B2019091B30124
S11317D0009711F00E945F032FBEFF91EF91DF91FC
S11317E0CF91BF91AF919F918F917F916F915F91B5
S11317F04F913F912F911F910F91FF90EF90DF90A8
S1131800CF90BF90AF909F908F907F906F905F909C
S11318104F903F902F900F900FBE0F901F901895F0
S1131820CF92DF92EF92FF920F931F93CFB6F8946B
S1131830DD240E942D02DC01CB0166E470E00E94ED
S11318406D174BE0E42EF12CE80EF91EF0927602AF
S1131850E09275020E946E0300271127A8019701E8
S11318600E942B04CFBE1F910F91FF90EF90DF9049
S1131870CF9008951F93CF93DF938FB7F894C82F19
S1131880DD271C2F80913E0190913F010897C9F4F8
S113189089E00E94390683E00E946007C09A81E0D3
S11318A090E090933F0180933E018FB7F89499277D
S11318B023E0209338018FBF84E00E943D01CFBF15
S11318C030C0C09880917902882311F085E001C06E
S11318D084E00E94390683FD09C080E00E94390635
S11318E083FF04C085E090E020E003C083E090E043
S11318F021E090933F0180933E01C09A1FBF2223B1
S113190041F01092480183E00E9460070E94100C8D
S113191008C00E946E0320E431E040E050E00E94E1
S11319202B04DF91CF911F91089578941F920F9209
S11319300FB60F9211241F932F933F934F935F93EE
S11319406F937F938F939F93AF93BF93EF93FF9383
S113195087B78F7E87BF78941FB7F8948091B901B9
S11319609091BA01A091BB01B091BC010097A1056F
S1131970B10509F051C080913E0190913F0185303D
S1131980910561F18630910530F48330910549F079
S1131990049781F51AC087309105F1F0089751F545
S11319A014C0869B0FC084E090E090933F01809325
S11319B03E010E946E0327E030E040E050E00E94C8
S11319C02B0418C00E94100C15C00E94B105882376
S11319D089F40E943A0C0EC080E00AC089E00E949B
S11319E0390681E00E94460483E00E94600787E094
S11319F00E9449078091390190913A01019771F44D
S1131A0082E090E090933A0180933901DE98DE9A67
S1131A1080E00E94590502C00E948B03812F992700
S1131A208FBFFF91EF91BF91AF919F918F917F9164
S1131A306F915F914F913F912F911F910F900FBE26
S1131A400F901F901895EF92FF920F931F93CF93CF
S1131A50DF938B018091C6019091C70186FF40C13D
S1131A608F7B8F3309F08EC1C0914401D091450121
S1131A705881509372018091700190917101853069
S1131A80910509F443C08630910509F48AC0029790
S1131A9009F01FC185E090E090937101809370017B
S1131AA040915F01852F99270196242F332728170A
S1131AB039074CF1B79906C00E9904C0451B415033
S1131AC040935F01409172014A32E8F44423A1F04B
S1131AD0BE016F5F7F4F483018F047E050E007C009
S1131AE086E090E09093710180937001552780E027
S1131AF090E00E94DE0146C11092AE01C09A84E0DB
S1131B000E946007E3C00E94E3073CC186E090E0C6
S1131B1090937101809370018091B101882309F43D
S1131B2039C0809105028823A9F5898185FF32C0D7
S1131B308F814E812FB7F89433276091C201709141
S1131B40C3012FBF9927982F88275527842B952BBE
S1131B508617970759F08F812E819927982F882708
S1131B603327822B932B8F5F9F4FA1F4898187703A
S1131B70813081F4C09AC0988AE00E943906C09AE4
S1131B80C0984091720147502896BE018FE30E948D
S1131B905406F8C040917201475055272896BE015B
S1131BA0A6CFC09A80917601882339F484E00E94FC
S1131BB0600780917601882311F0B7990AC00E9BC3
S1131BC008C090916902992321F0809172018B30B1
S1131BD038F480914401909145010E945F033DC017
S1131BE0913001F5E0916D02FF27EE0FFF1FEE0F1C
S1131BF0FF1FEB5EFD4F2081318142815381E091D3
S1131C004401F091450121ABBB27A52F942F832FCD
S1131C1080ABCA01AA27BB2787A7252F33274427D0
S1131C20552726A780916D029927019668E070E0F8
S1131C300E94811780936D02809169028150809384
S1131C406902882351F080914401909145010E94DA
S1131C505F0310926D021092690280917201FE017D
S1131C60E80FF11D808187FF31C0012B79F1698173
S1131C706770E0914401F0914501623019F5A0913B
S1131C80B201B091B301109709F180913E01909196
S1131C903F010797D9F4ED019B8183819817B1F433
S1131CA087B78F7E87BF908181E08CA7E90FF11DF4
S1131CB08291319688A780818F7789A780E00E94DE
S1131CC0490704C0613011F48BE02AC00E94AE07BA
S1131CD059C01092AE01C09A84E00E94600752C0BD
S1131CE08E3309F04FC0C09A80913E0190913F011C
S1131CF00897C9F4C09889E00E943906C09A83E025
S1131D000E94600781E090E090933F0180933E0140
S1131D108FB7F894992723E0209338018FBF84E08C
S1131D200E943D012FC080917902882349F484E008
S1131D3090E090933F0180933E010E943A0C22C0B0
S1131D4083E00E94600783E090E090933F018093DA
S1131D503E010E942D02DC01CB0166E371E00E948A
S1131D606D175BE0E52EF12CE80EF91EF0925A0196
S1131D70E09259010E946E0300271127A8019701E0
S1131D800E942B04DF91CF911F910F91FF90EF9050
S1131D9008951F920F920FB60F9211242F933F9321
S1131DA04F935F936F937F938F939F93AF93BF935F
S1131DB0EF93FF932FB1E091F901F091FA0130977D
S1131DC039F08091CF019091D001E80FF91F208361
S1131DD08091CF019091D00101969093D00180938E
S1131DE0CF0180E00E94E5004091460150914701F7
S1131DF08091CF019091D0018417950718F40E9427
S1131E0070011CC06091F9017091FA018091730214
S1131E10909174021092FA011092F90110927402D6
S1131E201092730210924701109246011092D00151
S1131E301092CF012FB120E00E94230DFF91EF916A
S1131E40BF91AF919F918F917F916F915F914F91CE
S1131E503F912F910F900FBE0F901F901895AF9246
S1131E60BF92CF92DF92EF92FF920F931F93CF9383
S1131E70DF93CDB7DEB7A8970FB6F894DEBF0FBED9
S1131E80CDBF873009F43FC1883090F4833009F422
S1131E90B6C0843030F48130E9F1823008F046C0B5
S1131EA01DC0853009F40DC1863008F025C1B8C0C5
S1131EB08B3009F455C28C3038F4893009F419C2D6
S1131EC08A3008F039C25AC18D3009F4DEC38D302E
S1131ED008F4A8C38E3009F056C42FC480916E0252
S1131EE0882309F450C421E0E1EDF1E090916E0201
S1131EF0822F892339F011821082822F80959823B2
S1131F0090936E02329631E0E13EF30709F43BC44C
S1131F10220FECCFE0912C01FF27EE0FFF1FEF52B1
S1131F20FE4F118210820E94A8092DC40FB7F894A5
S1131F30112781E00E94460451E0E52EF12CF09235
S1131F403F01E0923E011092400110926001109214
S1131F5074010FBF0FB7F89411270E945303F09236
S1131F607101E09270011092AE0189B78F7B89BF35
S1131F7080E488BF8AB780628ABF8AB78F7E8ABFAF
S1131F8089B7806489BF0FBF8FB7F894082F1127D2
S1131F908091390190913A01049719F483E00E94E9
S1131FA039060FBF0FB7F8941127C09A80E00E943A
S1131FB060070FBF8FB7F894992722E0209301029E
S1131FC08FBF0E9406026093DE017093DF0180934D
S1131FD0E0019093E10184EF91E0A0E0B0E0809310
S1131FE0E2019093E301A093E401B093E5018091B1
S1131FF0E6018E7F82608093E6018DE0BCC08FB7DE
S1132000F8949927109201028FBF8091E6018D7F89
S11320108093E6018091EF018D7F8093EF01B3C33C
S11320208FB7F8949927F09038018FBF63E081E06F
S11320300E94CE00882359F10FB7F894112710920B
S11320403F0110923E0187B78F7E87BF87B78F7D90
S113205087BF83E00E946007C09A0FBF0FB7F89450
S1132060112710927101109270010E945303C09ABB
S113207089B78F7B89BF0FBF10923A011092390143
S1132080DE98DD98DE9A83E00E943D0107C08FB799
S1132090F894992722E0209301028FBF0091CC018C
S11320A01091CD010E94FF0180916F029091700206
S11320B0892B09F068C38FEF809334014F2DB80149
S11320C05AC38FB7F894282F3327122F80917702A1
S11320D0882309F581E080937702809139019091FA
S11320E03A01049721F481E00E94590503C086E077
S11320F00E943D011FBF47C38FB7F89499271092E0
S113210077028FBF40C38FB7F894282F332780916D
S11321103B01882311F02FBF36C32FBF80B399270B
S113212046E0969587954A95E1F7182F117090919E
S1132130C4018091C5018917D9F01917C9F484E045
S113214090E090933A01809339018FB7F8949927DE
S113215021E020933B018FBF60E070E08DE10E949D
S1132160F4070E940106C09AC09882E00E943D01D3
S11321701093C50187E00E943D0105C38FB7F89411
S1132180992710912D018FBF123009F465C01330C7
S113219030F4112359F0113009F0F5C248C013305E
S11321A009F474C0143009F0EEC2A0C0C0988FB70F
S11321B0F894082F11278091390190913A010297E0
S11321C0A1F583E090E090933A018093390168E1AE
S11321D070E08DE10E94F40781E08093C4011092C5
S11321E03B0180B3992736E0969587953A95E1F7B8
S11321F0817090708093C50187E00E943D0181E069
S11322000E9439066FE772E08CE10E94F4070E9495
S113221055080E941B0866E57AE287E10E94F407EC
S11322206FEF70E885E10E94F4070FBFACC2C0985D
S113223086E00E9439060E9455080E941B080E94ED
S11322400106C09AC09883E00E943906C09A81E0D2
S11322500E94600786E08FCFC0988FB7F894082F4C
S1132260112760E080E00E94CE00882311F00FBFA8
S11322700AC00FBF83E50E94640180E00E946401EC
S113228080E00E946401C09A82E02DC08FB7F89468
S1132290992720913E018FBF243039F0283041F036
S11322A0223001F50E9466086EC20E943A0C6BC28D
S11322B0C09889E00E943906C09A83E00E946007B2
S11322C08FB7F894992721E030E030933F012093B1
S11322D03E018FBF8FB7F8949927109338018FBFB1
S11322E084E049CF83E00E9460074DC20E948606C5
S11322F04AC20FB7F8941127409146015091470103
S11323006091F9017091FA018091730290917402C5
S11323101092FA011092F901109274021092730251
S113232010924701109246011092D0011092CF01F1
S113233020E00E94230D79CF2FB7F89433278091A2
S113234077018093300182E080933D012FBF80911B
S11323503001882309F017C2B89AC09888E00BCFDF
S1132360A0914401B09145011C919D01210F311DA3
S1132370F9018081881F8827881FFD0183A7F9013F
S113238080818F77FD0181A721503040F901808140
S1132390FD0180A7A0914401B0914501FD01328166
S11323A08FB7F8949927209175018FBF222309F4E0
S11323B090C0832F992796958795969587958370D6
S11323C090708230910541F5878146812FB7F8944A
S11323D033276091C2017091C3012FBF9927982FB1
S11323E088275527842B952B8617970719F481E0A6
S11323F090E06CC0FD018781268140E050E0992780
S1132400982F88273327822B932B8F5F9F4F11F4AC
S113241041E050E0CA015AC0039709F0FAC09E0196
S11324202F5F3F4F46E052E088E0FA010190AF0190
S1132430F90101929F018150C1F79E012F5D3F4F29
S1132440AE014F5F5F4F88E0FA010190AF01F901DF
S113245001929F018150C1F79E01275F3F4FAE015A
S11324604F5D5F4F88E0FA010190AF01F9010192DD
S11324709F018150C1F79E012F5E3F4FAE01475F20
S11324805F4F88E0FA010190AF01F90101929F01C9
S11324908150C1F79E01275E3F4FAE014F5E5F4FF3
S11324A088E0FA010190AF01F90101929F01815086
S11324B0C1F748E050E0BE01675E7F4FCD0106964C
S11324C00E94EA17892B09F0A4C003C0882309F4E9
S11324D0A0C01D3008F49DC0E0904401F090450177
S11324E0F7012281822F9927F6E096958795FA9530
S11324F0E1F7039719F468E070E002C062E070E06D
S1132500822F9927969587959695879583709070D5
S1132510039719F488E090E002C082E090E026E09E
S113252030E0E20EF31E40E050E020E030E0F7013E
S1132530E80FF91F8AEF9FEFE80EF91E05C081919D
S1132540480F511D2F5F3F4F26173707C4F3F7017C
S113255063818FEF809371028FB7F894782F20E016
S113256030E0EDE4F1E0808191818417950729F44E
S11325708281861731F1209371022F5F3F4F33968A
S11325802430310581F77FBF909171023FB7F894F1
S11325909F3F21F0809141018917A9F420914101C5
S11325A0822F9927FC01EE0FFF1FE80FF91FE35B51
S11325B0FE4F5183408362832F5F23702093410138
S11325C00EC07FBF22C0892F9927FC01EE0FFF1F89
S11325D0E80FF91FE35BFE4F518340836283832F2F
S11325E099278FBF0FB7F8941127C7010E94700075
S11325F0FC0190810FBFF70183A5882331F09F333D
S113260021F48FB7F89499278FBFF0924501E09297
S113261044018FB7F89499271092AE018FBF0E949E
S1132620AE07B1C080917301882361F52091110236
S1132630309112024091130250911402EFB7F894B2
S1132640FF276091FC017091FD018091FE01909142
S1132650FF01E0905B01F0905C0100915D0110913D
S11326605E016E0D7F1D801F911FEFBF209311022D
S11326703093120240931302509314021092730188
S11326800E9439030E94060243C00E9406025B01B5
S11326906C018FB7F89499271092CE018FBF8FEFFA
S11326A0E82E8FEFF82E8FEF082F8FE7182F60E0BA
S11326B0E5EDF1E0808581FF1CC080819181A281DC
S11326C0B381A6019501281B390B4A0B5B0BDA0178
S11326D0C9012481358146815781281B390B4A0B56
S11326E05B0B2E153F05400751071CF479018A0145
S11326F061E0399631E0E93FF307E1F6662309F436
S113270042C01E141F04100611062CF0C601B501A8
S11327100E94E00938C0E0921102F0921202009384
S113272013021093140281E080937301A8019701AE
S1132730C601B5010E94390326C09091B801809169
S11327403401981701F1909334019923C9F400914D
S11327504201109143016091CA01C8010E94AC0872
S1132760482F5527442379F08FEF809334016091EB
S1132770420170914301F80183850E94CE0903C090
S11327808FEF80933401A8960FB6F894DEBF0FBE86
S1132790CDBFDF91CF911F910F91FF90EF90DF900C
S11327A0CF90BF90AF90089580916A028F3FB1F0AF
S11327B0282F3327F901EF59FE4F808180936A0255
S11327C08F3F11F4809378028FEF80832F3F31F095
S11327D0822F0E942F0F81E090E0089580E090E026
S11327E008951F93CF93DF93CDB7DEB7E0970FB66D
S11327F0F894DEBF0FBECDBF1FB7F8944FE050E092
S11328006FEF70E081E691E00E94F7178FEF8093FD
S11328106A028093780281E08EBD88E080BF83E005
S113282083BF8CB59DB54AE72CB53DB5281739074C
S113283008F44150442311F0C901F6CF92B782B78E
S11328408917E9F32CB53DB592B782B78917E9F337
S11328508CB59DB5821B930B409675E09695879534
S11328607A95E1F790936C0280936B0213BE83B761
S11328708EBD8EB580BF12BE1DBC1CBC8FEF86BF43
S113288086B780937C0080B7992787709070892BD6
S1132890D1F7D29AD19AD09ADA9AD99AD89A15BA03
S11328A08FEF84BBD498DC981DBC1CBC87B78460B4
S11328B087BF8EB5887F84608EBD0E94D413882321
S11328C0E1F780910001909101010196AA27BB27AD
S11328D08093B4019093B501A093B601B093B7016E
S11328E08FEF80937801EDE4F1E08FEF9FEF918318
S11328F080831282339621E0E935F207C1F70E9402
S11329002D026093100280910001909101010196C3
S1132910AA27BB278093B4019093B501A093B60175
S1132920B093B70180B7886080BF8BE083BF86EE29
S113293081BF87B7826087BF0E94B60285E392E0B9
S113294090934501809344018E98B89A8C988FEFA8
S11329508093BD01109200021092010210920202B3
S113296010920302B89AD69AD59A8FB7F8949927F9
S113297020913101309132018FBF3093C3012093F4
S1132980C2010E94590429A73AA74BA75CA76DA7C7
S11329907EA78FA798ABDE019196FE01B99688E0D9
S11329A001900D928150E1F7DE015196FE01B1963E
S11329B088E001900D928150E1F7DE015996FE0105
S11329C0719688E001900D928150E1F7A6E0B2E0A3
S11329D0FE01799688E001900D928150E1F7809193
S11329E0330199279093B0018093AF018FE18093D5
S11329F0FB018AE180930E020E94590429A73AA799
S1132A004BA75CA76DA77EA78FA798ABDE01919615
S1132A10FE01B99688E001900D928150E1F7DE0144
S1132A201196FE01B19688E001900D928150E1F774
S1132A30DE011996FE01319688E001900D928150D5
S1132A40E1F7A6E0B2E0FE01399688E001900D922C
S1132A508150E1F7A6E0B2E0FD0137969C918081B8
S1132A608D939083319782E0E930F807B9F781E0DC
S1132A7080937501109272028093B1011092050245
S1132A800E94D4138823E1F7812F99278FBF78946C
S1132A9061E081E00E94B4008823E9F48FB7F894E0
S1132AA0282F33278091390190913A01892B11F015
S1132AB02FBF1BC081E090E090933A0180933901CD
S1132AC02FBFDD9A0E946E0324E130E040E050E025
S1132AD00E942B040AC062E081E00E94CE00882399
S1132AE021F461E081E00E94CE008FB7F894482F72
S1132AF055274BC087B7992783709070892B19F499
S1132B00E5E0F0E013C080B7992787709070892BB7
S1132B10D1F781B792B7891B8C3030F082B7853FEB
S1132B2018F4E3E0F0E002C0E2E0F0E087B7887B6D
S1132B30C1F480917D008B7FA1F46E9912C08AB19B
S1132B4090919A00892B887161F48091740082FDC0
S1132B5008C0379B03C081E090E005C085E090E0A9
S1132B6002C080E090E025B78E1708F4E82FFF2715
S1132B70E457FF4FE491237E2062E22BE5BF789473
S1132B808895F89485B78F7D85BF80916A028F3FC1
S1132B9009F4B0CF282F3327F901EF59FE4F808174
S1132BA080936A028F3F11F4809378028FEF8083C1
S1132BB02F3F09F49FCF4FBF822F0E942F0F95CF35
S1132BC0ACE2B0E0E6EEF5E10C94B317222E332E1E
S1132BD0442E552E662E772E882E992EFE01319680
S1132BE0A8E01192AA95E9F729823A824B825C8285
S1132BF06D827E828F829886FE013996B8E01192AA
S1132C00BA95E9F7A986BA86CB86DC86ED86FE8678
S1132C100F87188B89819A81AB81BC8189A79AA778
S1132C20ABA7BCA77C018D018FEF9FEFA0E0B0E0C4
S1132C30E822F9220A231B2389A59AA5ABA5BCA5E2
S1132C401D014424552489859A85AB85BC858DA3B3
S1132C509EA3AFA3B8A75C016D018FEF9FEFA0E027
S1132C60B0E0A822B922CA22DB228DA19EA1AFA185
S1132C70B8A53D0188249924C801B701A60195018E
S1132C800E94941769A37AA38BA39CA3C801B701DC
S1132C90A40193010E9494177B018C01C201B1012C
S1132CA0A60195010E9494175B016C01C201B10158
S1132CB0A40193010E9494173B014C01EA0CFB1CF4
S1132CC00C1D1D1D89A19AA1ABA1BCA19D01442786
S1132CD055272E0D3F1D401F511F2A153B054C053E
S1132CE05D0540F480E090E0A1E0B0E0680E791E5C
S1132CF08A1E9B1ECA01AA27BB27860D971DA81DE5
S1132D00B91D8D8F9E8FAF8FB8A3A90133272227BA
S1132D1089A19AA1ABA1BCA1A070B070280F391FE2
S1132D204A1F5B1F298F3A8F4B8F5C8FA98CBA8CFB
S1132D30CB8CDC8CED8CFE8C0F8D18A1FE01719672
S1132D4098E011929A95E9F7ED8AFE8A0F8B188F15
S1132D502D813E814F8158856DA17EA18FA198A5BB
S1132D600E9494173B014C012D853E854F8558895F
S1132D7069A57AA58BA59CA50E9494172D893E89E7
S1132D804F89588D260F371F481F591F260D371D91
S1132D90481D591D2D8B3E8B4F8B588F6D887E8817
S1132DA08F88988C2A2D3B2D4C2D5D2D662D772DEB
S1132DB0882D992DE2E1AC960C94CF17A0E1B0E0F8
S1132DC0E4EEF6E10C94B317222E332E442E552E46
S1132DD0662E772E882E992E002309F466C088E08B
S1132DE0FE01319611928A95E9F729833A834B8340
S1132DF05C836D837E838F829887E0E2E01B1E16DE
S1132E00CCF52D813E814F815885602F772767FD52
S1132E107095DA01C901062E04C0B695A795979559
S1132E2087950A94D2F78D879E87AF87B88B04C0A5
S1132E30220F331F441F551FEA95D2F789819A81C7
S1132E40AB81BC8104C0B695A795979587956A9583
S1132E50D2F7282B392B4A2B5B2B29873A874B87B0
S1132E605C8729843A844B845C846D847E848F845B
S1132E7098881BC01D861E861F86188A2E2F33270E
S1132E8027FD3095309521953F4F8D819E81AF81EF
S1132E90B88504C0B695A795979587952A95D2F7D6
S1132EA089879A87AB87BC87DCCF222D332D442DAD
S1132EB0552D662D772D882D992DE2E160960C9481
S1132EC0CF17991B79E004C0991F961708F0961B39
S1132ED0881F7A95C9F780950895AA1BBB1B51E1F9
S1132EE007C0AA1FBB1FA617B70710F0A61BB70B76
S1132EF0881F991F5A95A9F780959095BC01CD011B
S1132F00089597FB092E07260AD077FD04D0E5DF44
S1132F1006D000201AF4709561957F4F0895F6F756
S1132F20909581959F4F0895629FD001739FF00102
S1132F30829FE00DF11D649FE00DF11D929FF00D45
S1132F40839FF00D749FF00D659FF00D9927729F7C
S1132F50B00DE11DF91F639FB00DE11DF91FBD0107
S1132F60CF01112408952F923F924F925F926F9256
S1132F707F928F929F92AF92BF92CF92DF92EF9205
S1132F80FF920F931F93CF93DF93CDB7DEB7CA1B86
S1132F90DB0B0FB6F894DEBF0FBECDBF09942A88B1
S1132FA0398848885F846E847D848C849B84AA8459
S1132FB0B984C884DF80EE80FD800C811B81AA81E6
S1132FC0B981CE0FD11D0FB6F894DEBF0FBECDBFB1
S1132FD0ED010895FB01DC0104C08D91019080197D
S1132FE021F441505040C8F7881B990B0895DC0127
S1132FF001C06D9341505040E0F70895FB01DC019E
S10F300001900D920020E1F70895FFCF2D
S113300C010046495253544B455946495253544B6B
S113301C455931313131005345434F4E444B455999
S113302C5345434F4E444B455932320001FFFFFF89
S10B303CFF010022FFFFFF0069
S9030000FC
